{
  "_format": "hh-sol-artifact-1",
  "contractName": "Men",
  "sourceName": "contracts/Men.sol",
  "abi": [
    {
      "inputs": [
        {
          "internalType": "address payable",
          "name": "minter",
          "type": "address"
        }
      ],
      "stateMutability": "nonpayable",
      "type": "constructor"
    },
    {
      "anonymous": false,
      "inputs": [
        {
          "indexed": true,
          "internalType": "address",
          "name": "owner",
          "type": "address"
        },
        {
          "indexed": true,
          "internalType": "address",
          "name": "approved",
          "type": "address"
        },
        {
          "indexed": true,
          "internalType": "uint256",
          "name": "tokenId",
          "type": "uint256"
        }
      ],
      "name": "Approval",
      "type": "event"
    },
    {
      "anonymous": false,
      "inputs": [
        {
          "indexed": true,
          "internalType": "address",
          "name": "owner",
          "type": "address"
        },
        {
          "indexed": true,
          "internalType": "address",
          "name": "operator",
          "type": "address"
        },
        {
          "indexed": false,
          "internalType": "bool",
          "name": "approved",
          "type": "bool"
        }
      ],
      "name": "ApprovalForAll",
      "type": "event"
    },
    {
      "anonymous": false,
      "inputs": [
        {
          "indexed": true,
          "internalType": "address",
          "name": "_mintedTo",
          "type": "address"
        },
        {
          "indexed": true,
          "internalType": "uint256",
          "name": "_tokenId",
          "type": "uint256"
        },
        {
          "indexed": false,
          "internalType": "uint256",
          "name": "_MintedAtBlockNumber",
          "type": "uint256"
        }
      ],
      "name": "Mint",
      "type": "event"
    },
    {
      "anonymous": false,
      "inputs": [
        {
          "indexed": true,
          "internalType": "address",
          "name": "previousOwner",
          "type": "address"
        },
        {
          "indexed": true,
          "internalType": "address",
          "name": "newOwner",
          "type": "address"
        }
      ],
      "name": "OwnershipTransferred",
      "type": "event"
    },
    {
      "anonymous": false,
      "inputs": [
        {
          "indexed": false,
          "internalType": "address",
          "name": "",
          "type": "address"
        },
        {
          "indexed": false,
          "internalType": "uint256",
          "name": "",
          "type": "uint256"
        }
      ],
      "name": "Received",
      "type": "event"
    },
    {
      "anonymous": false,
      "inputs": [
        {
          "indexed": true,
          "internalType": "bytes32",
          "name": "role",
          "type": "bytes32"
        },
        {
          "indexed": true,
          "internalType": "bytes32",
          "name": "previousAdminRole",
          "type": "bytes32"
        },
        {
          "indexed": true,
          "internalType": "bytes32",
          "name": "newAdminRole",
          "type": "bytes32"
        }
      ],
      "name": "RoleAdminChanged",
      "type": "event"
    },
    {
      "anonymous": false,
      "inputs": [
        {
          "indexed": true,
          "internalType": "bytes32",
          "name": "role",
          "type": "bytes32"
        },
        {
          "indexed": true,
          "internalType": "address",
          "name": "account",
          "type": "address"
        },
        {
          "indexed": true,
          "internalType": "address",
          "name": "sender",
          "type": "address"
        }
      ],
      "name": "RoleGranted",
      "type": "event"
    },
    {
      "anonymous": false,
      "inputs": [
        {
          "indexed": true,
          "internalType": "bytes32",
          "name": "role",
          "type": "bytes32"
        },
        {
          "indexed": true,
          "internalType": "address",
          "name": "account",
          "type": "address"
        },
        {
          "indexed": true,
          "internalType": "address",
          "name": "sender",
          "type": "address"
        }
      ],
      "name": "RoleRevoked",
      "type": "event"
    },
    {
      "anonymous": false,
      "inputs": [
        {
          "indexed": true,
          "internalType": "address",
          "name": "from",
          "type": "address"
        },
        {
          "indexed": true,
          "internalType": "address",
          "name": "to",
          "type": "address"
        },
        {
          "indexed": true,
          "internalType": "uint256",
          "name": "tokenId",
          "type": "uint256"
        }
      ],
      "name": "Transfer",
      "type": "event"
    },
    {
      "stateMutability": "payable",
      "type": "fallback"
    },
    {
      "inputs": [],
      "name": "DEFAULT_ADMIN_ROLE",
      "outputs": [
        {
          "internalType": "bytes32",
          "name": "",
          "type": "bytes32"
        }
      ],
      "stateMutability": "view",
      "type": "function"
    },
    {
      "inputs": [],
      "name": "FREEMEN",
      "outputs": [
        {
          "internalType": "uint256",
          "name": "",
          "type": "uint256"
        }
      ],
      "stateMutability": "view",
      "type": "function"
    },
    {
      "inputs": [],
      "name": "MAXMEN",
      "outputs": [
        {
          "internalType": "uint256",
          "name": "",
          "type": "uint256"
        }
      ],
      "stateMutability": "view",
      "type": "function"
    },
    {
      "inputs": [],
      "name": "MENPRICE",
      "outputs": [
        {
          "internalType": "uint256",
          "name": "",
          "type": "uint256"
        }
      ],
      "stateMutability": "view",
      "type": "function"
    },
    {
      "inputs": [],
      "name": "MINTER_ROLE",
      "outputs": [
        {
          "internalType": "bytes32",
          "name": "",
          "type": "bytes32"
        }
      ],
      "stateMutability": "view",
      "type": "function"
    },
    {
      "inputs": [
        {
          "internalType": "address",
          "name": "to",
          "type": "address"
        },
        {
          "internalType": "uint256",
          "name": "tokenId",
          "type": "uint256"
        }
      ],
      "name": "approve",
      "outputs": [],
      "stateMutability": "nonpayable",
      "type": "function"
    },
    {
      "inputs": [
        {
          "internalType": "address",
          "name": "owner",
          "type": "address"
        }
      ],
      "name": "balanceOf",
      "outputs": [
        {
          "internalType": "uint256",
          "name": "",
          "type": "uint256"
        }
      ],
      "stateMutability": "view",
      "type": "function"
    },
    {
      "inputs": [
        {
          "internalType": "uint256",
          "name": "tokenId",
          "type": "uint256"
        }
      ],
      "name": "getApproved",
      "outputs": [
        {
          "internalType": "address",
          "name": "",
          "type": "address"
        }
      ],
      "stateMutability": "view",
      "type": "function"
    },
    {
      "inputs": [],
      "name": "getChainID",
      "outputs": [
        {
          "internalType": "uint256",
          "name": "",
          "type": "uint256"
        }
      ],
      "stateMutability": "view",
      "type": "function"
    },
    {
      "inputs": [],
      "name": "getLinkTree",
      "outputs": [
        {
          "internalType": "string",
          "name": "",
          "type": "string"
        }
      ],
      "stateMutability": "view",
      "type": "function"
    },
    {
      "inputs": [
        {
          "internalType": "bytes32",
          "name": "role",
          "type": "bytes32"
        }
      ],
      "name": "getRoleAdmin",
      "outputs": [
        {
          "internalType": "bytes32",
          "name": "",
          "type": "bytes32"
        }
      ],
      "stateMutability": "view",
      "type": "function"
    },
    {
      "inputs": [
        {
          "internalType": "bytes32",
          "name": "role",
          "type": "bytes32"
        },
        {
          "internalType": "address",
          "name": "account",
          "type": "address"
        }
      ],
      "name": "grantRole",
      "outputs": [],
      "stateMutability": "nonpayable",
      "type": "function"
    },
    {
      "inputs": [
        {
          "internalType": "bytes32",
          "name": "role",
          "type": "bytes32"
        },
        {
          "internalType": "address",
          "name": "account",
          "type": "address"
        }
      ],
      "name": "hasRole",
      "outputs": [
        {
          "internalType": "bool",
          "name": "",
          "type": "bool"
        }
      ],
      "stateMutability": "view",
      "type": "function"
    },
    {
      "inputs": [
        {
          "internalType": "address",
          "name": "owner",
          "type": "address"
        },
        {
          "internalType": "address",
          "name": "operator",
          "type": "address"
        }
      ],
      "name": "isApprovedForAll",
      "outputs": [
        {
          "internalType": "bool",
          "name": "",
          "type": "bool"
        }
      ],
      "stateMutability": "view",
      "type": "function"
    },
    {
      "inputs": [],
      "name": "linkTree",
      "outputs": [
        {
          "internalType": "string",
          "name": "",
          "type": "string"
        }
      ],
      "stateMutability": "view",
      "type": "function"
    },
    {
      "inputs": [],
      "name": "name",
      "outputs": [
        {
          "internalType": "string",
          "name": "",
          "type": "string"
        }
      ],
      "stateMutability": "view",
      "type": "function"
    },
    {
      "inputs": [],
      "name": "owner",
      "outputs": [
        {
          "internalType": "address",
          "name": "",
          "type": "address"
        }
      ],
      "stateMutability": "view",
      "type": "function"
    },
    {
      "inputs": [
        {
          "internalType": "uint256",
          "name": "tokenId",
          "type": "uint256"
        }
      ],
      "name": "ownerOf",
      "outputs": [
        {
          "internalType": "address",
          "name": "",
          "type": "address"
        }
      ],
      "stateMutability": "view",
      "type": "function"
    },
    {
      "inputs": [
        {
          "internalType": "address",
          "name": "redeemer",
          "type": "address"
        },
        {
          "components": [
            {
              "internalType": "string",
              "name": "uri",
              "type": "string"
            },
            {
              "internalType": "bytes",
              "name": "signature",
              "type": "bytes"
            }
          ],
          "internalType": "struct Men.NFTVoucher",
          "name": "voucher",
          "type": "tuple"
        }
      ],
      "name": "redeem",
      "outputs": [
        {
          "internalType": "uint256",
          "name": "",
          "type": "uint256"
        }
      ],
      "stateMutability": "payable",
      "type": "function"
    },
    {
      "inputs": [],
      "name": "renounceOwnership",
      "outputs": [],
      "stateMutability": "nonpayable",
      "type": "function"
    },
    {
      "inputs": [
        {
          "internalType": "bytes32",
          "name": "role",
          "type": "bytes32"
        },
        {
          "internalType": "address",
          "name": "account",
          "type": "address"
        }
      ],
      "name": "renounceRole",
      "outputs": [],
      "stateMutability": "nonpayable",
      "type": "function"
    },
    {
      "inputs": [
        {
          "internalType": "bytes32",
          "name": "role",
          "type": "bytes32"
        },
        {
          "internalType": "address",
          "name": "account",
          "type": "address"
        }
      ],
      "name": "revokeRole",
      "outputs": [],
      "stateMutability": "nonpayable",
      "type": "function"
    },
    {
      "inputs": [
        {
          "internalType": "address",
          "name": "from",
          "type": "address"
        },
        {
          "internalType": "address",
          "name": "to",
          "type": "address"
        },
        {
          "internalType": "uint256",
          "name": "tokenId",
          "type": "uint256"
        }
      ],
      "name": "safeTransferFrom",
      "outputs": [],
      "stateMutability": "nonpayable",
      "type": "function"
    },
    {
      "inputs": [
        {
          "internalType": "address",
          "name": "from",
          "type": "address"
        },
        {
          "internalType": "address",
          "name": "to",
          "type": "address"
        },
        {
          "internalType": "uint256",
          "name": "tokenId",
          "type": "uint256"
        },
        {
          "internalType": "bytes",
          "name": "_data",
          "type": "bytes"
        }
      ],
      "name": "safeTransferFrom",
      "outputs": [],
      "stateMutability": "nonpayable",
      "type": "function"
    },
    {
      "inputs": [],
      "name": "saleIsActive",
      "outputs": [
        {
          "internalType": "bool",
          "name": "",
          "type": "bool"
        }
      ],
      "stateMutability": "view",
      "type": "function"
    },
    {
      "inputs": [
        {
          "internalType": "address",
          "name": "operator",
          "type": "address"
        },
        {
          "internalType": "bool",
          "name": "approved",
          "type": "bool"
        }
      ],
      "name": "setApprovalForAll",
      "outputs": [],
      "stateMutability": "nonpayable",
      "type": "function"
    },
    {
      "inputs": [
        {
          "internalType": "string",
          "name": "_linkTree",
          "type": "string"
        }
      ],
      "name": "setLinkTree",
      "outputs": [],
      "stateMutability": "nonpayable",
      "type": "function"
    },
    {
      "inputs": [
        {
          "internalType": "bytes4",
          "name": "interfaceId",
          "type": "bytes4"
        }
      ],
      "name": "supportsInterface",
      "outputs": [
        {
          "internalType": "bool",
          "name": "",
          "type": "bool"
        }
      ],
      "stateMutability": "view",
      "type": "function"
    },
    {
      "inputs": [],
      "name": "symbol",
      "outputs": [
        {
          "internalType": "string",
          "name": "",
          "type": "string"
        }
      ],
      "stateMutability": "view",
      "type": "function"
    },
    {
      "inputs": [
        {
          "internalType": "uint256",
          "name": "tokenId",
          "type": "uint256"
        }
      ],
      "name": "tokenURI",
      "outputs": [
        {
          "internalType": "string",
          "name": "",
          "type": "string"
        }
      ],
      "stateMutability": "view",
      "type": "function"
    },
    {
      "inputs": [
        {
          "internalType": "address",
          "name": "from",
          "type": "address"
        },
        {
          "internalType": "address",
          "name": "to",
          "type": "address"
        },
        {
          "internalType": "uint256",
          "name": "tokenId",
          "type": "uint256"
        }
      ],
      "name": "transferFrom",
      "outputs": [],
      "stateMutability": "nonpayable",
      "type": "function"
    },
    {
      "inputs": [
        {
          "internalType": "address",
          "name": "newOwner",
          "type": "address"
        }
      ],
      "name": "transferOwnership",
      "outputs": [],
      "stateMutability": "nonpayable",
      "type": "function"
    },
    {
      "inputs": [],
      "name": "triggerSale",
      "outputs": [],
      "stateMutability": "nonpayable",
      "type": "function"
    },
    {
      "inputs": [],
      "name": "withdraw",
      "outputs": [],
      "stateMutability": "nonpayable",
      "type": "function"
    },
    {
      "stateMutability": "payable",
      "type": "receive"
    }
  ],
  "bytecode": "0x6101a06040526000600860146101000a81548160ff02191690831515021790555060405180602001604052806000815250600990805190602001906200004792919062000535565b50612710610140908152506103e861016090815250662386f26fc10000610180908152503480156200007857600080fd5b5060405162005f2f38038062005f2f83398181016040528101906200009e9190620005fc565b6040518060400160405280601181526020017f5468654d656e4d656e2d566f75636865720000000000000000000000000000008152506040518060400160405280600381526020017f70756d00000000000000000000000000000000000000000000000000000000008152506040518060400160405280600381526020017f4d656e00000000000000000000000000000000000000000000000000000000008152506040518060400160405280600381526020017f4d454e000000000000000000000000000000000000000000000000000000000081525081600090805190602001906200018e92919062000535565b508060019080519060200190620001a792919062000535565b50505060008280519060200120905060008280519060200120905060007f8b73c3c69bb8fe3d512ecc4cf759cc79239f7b179b0ffacaa9a75d522b39400f90508260e081815250508161010081815250504660a0818152505062000213818484620002b860201b60201c565b608081815250503073ffffffffffffffffffffffffffffffffffffffff1660c08173ffffffffffffffffffffffffffffffffffffffff1660601b8152505080610120818152505050505050506200027f62000273620002f460201b60201c565b620002fc60201b60201c565b620002b17f9f2df0fed2c77648de5860a4cc508cd0818c85b8b8a1ab4ceeef8d981c8956a682620003c260201b60201c565b5062000793565b60008383834630604051602001620002d59594939291906200065b565b6040516020818303038152906040528051906020012090509392505050565b600033905090565b6000600860009054906101000a900473ffffffffffffffffffffffffffffffffffffffff16905081600860006101000a81548173ffffffffffffffffffffffffffffffffffffffff021916908373ffffffffffffffffffffffffffffffffffffffff1602179055508173ffffffffffffffffffffffffffffffffffffffff168173ffffffffffffffffffffffffffffffffffffffff167f8be0079c531659141344cd1fd0a4f28419497f9722a3daafe3b4186f6b6457e060405160405180910390a35050565b620003d48282620003d860201b60201c565b5050565b620003ea8282620004ca60201b60201c565b620004c65760016007600084815260200190815260200160002060000160008373ffffffffffffffffffffffffffffffffffffffff1673ffffffffffffffffffffffffffffffffffffffff16815260200190815260200160002060006101000a81548160ff0219169083151502179055506200046b620002f460201b60201c565b73ffffffffffffffffffffffffffffffffffffffff168173ffffffffffffffffffffffffffffffffffffffff16837f2f8788117e7eff1d82e926ec794901d17c78024a50270940304540a733656f0d60405160405180910390a45b5050565b60006007600084815260200190815260200160002060000160008373ffffffffffffffffffffffffffffffffffffffff1673ffffffffffffffffffffffffffffffffffffffff16815260200190815260200160002060009054906101000a900460ff16905092915050565b828054620005439062000714565b90600052602060002090601f016020900481019282620005675760008555620005b3565b82601f106200058257805160ff1916838001178555620005b3565b82800160010185558215620005b3579182015b82811115620005b257825182559160200191906001019062000595565b5b509050620005c29190620005c6565b5090565b5b80821115620005e1576000816000905550600101620005c7565b5090565b600081519050620005f68162000779565b92915050565b6000602082840312156200060f57600080fd5b60006200061f84828501620005e5565b91505092915050565b6200063381620006b8565b82525050565b6200064481620006e0565b82525050565b62000655816200070a565b82525050565b600060a08201905062000672600083018862000639565b62000681602083018762000639565b62000690604083018662000639565b6200069f60608301856200064a565b620006ae608083018462000628565b9695505050505050565b6000620006c582620006ea565b9050919050565b6000620006d982620006ea565b9050919050565b6000819050919050565b600073ffffffffffffffffffffffffffffffffffffffff82169050919050565b6000819050919050565b600060028204905060018216806200072d57607f821691505b602082108114156200074457620007436200074a565b5b50919050565b7f4e487b7100000000000000000000000000000000000000000000000000000000600052602260045260246000fd5b6200078481620006cc565b81146200079057600080fd5b50565b60805160a05160c05160601c60e05161010051610120516101405161016051610180516157136200081c6000396000818161132401526117350152600081816112fd01526119af015260008181610ac6015261129b01526000613585015260006135c7015260006135a6015260006134db015260006135310152600061355a01526157136000f3fe6080604052600436106101fd5760003560e01c80638da5cb5b1161010d578063c87b56dd116100a0578063e985e9c51161006f578063e985e9c51461078e578063eb8d2444146107cb578063f0aabeef146107f6578063f2fde38b1461081f578063facb1cf5146108485761023d565b8063c87b56dd146106d2578063d53913931461070f578063d53c0df41461073a578063d547741f146107655761023d565b8063a22cb465116100dc578063a22cb46514610625578063b08e8dd91461064e578063b388c89e14610679578063b88d4fde146106a95761023d565b80638da5cb5b1461056757806391d148541461059257806395d89b41146105cf578063a217fddf146105fa5761023d565b80632f2ff15d11610190578063564b81ef1161015f578063564b81ef146104805780635f1c6db4146104ab5780636352211e146104d657806370a0823114610513578063715018a6146105505761023d565b80632f2ff15d146103ee57806336568abe146104175780633ccfd60b1461044057806342842e0e146104575761023d565b806313d733b3116101cc57806313d733b31461034657806323b872dd14610371578063248a9ca31461039a578063297c9c22146103d75761023d565b806301ffc9a71461027857806306fdde03146102b5578063081812fc146102e0578063095ea7b31461031d5761023d565b3661023d577f88a5966d370b9919b20f3e2c13ff65706f196a4e32cc2c12bf57088f8852587433346040516102339291906143ec565b60405180910390a1005b7f88a5966d370b9919b20f3e2c13ff65706f196a4e32cc2c12bf57088f88525874333460405161026e9291906143ec565b60405180910390a1005b34801561028457600080fd5b5061029f600480360381019061029a9190613c36565b610873565b6040516102ac9190614415565b60405180910390f35b3480156102c157600080fd5b506102ca610895565b6040516102d7919061450c565b60405180910390f35b3480156102ec57600080fd5b5061030760048036038101906103029190613cc9565b610927565b6040516103149190614385565b60405180910390f35b34801561032957600080fd5b50610344600480360381019061033f9190613b95565b6109ac565b005b34801561035257600080fd5b5061035b610ac4565b60405161036891906148ee565b60405180910390f35b34801561037d57600080fd5b5061039860048036038101906103939190613a3b565b610ae8565b005b3480156103a657600080fd5b506103c160048036038101906103bc9190613bd1565b610b48565b6040516103ce9190614430565b60405180910390f35b3480156103e357600080fd5b506103ec610b68565b005b3480156103fa57600080fd5b5061041560048036038101906104109190613bfa565b610c10565b005b34801561042357600080fd5b5061043e60048036038101906104399190613bfa565b610c31565b005b34801561044c57600080fd5b50610455610cb4565b005b34801561046357600080fd5b5061047e60048036038101906104799190613a3b565b610d42565b005b34801561048c57600080fd5b50610495610d62565b6040516104a291906148ee565b60405180910390f35b3480156104b757600080fd5b506104c0610d6f565b6040516104cd919061450c565b60405180910390f35b3480156104e257600080fd5b506104fd60048036038101906104f89190613cc9565b610dfd565b60405161050a9190614385565b60405180910390f35b34801561051f57600080fd5b5061053a600480360381019061053591906139d6565b610eaf565b60405161054791906148ee565b60405180910390f35b34801561055c57600080fd5b50610565610f67565b005b34801561057357600080fd5b5061057c610fef565b6040516105899190614385565b60405180910390f35b34801561059e57600080fd5b506105b960048036038101906105b49190613bfa565b611019565b6040516105c69190614415565b60405180910390f35b3480156105db57600080fd5b506105e4611084565b6040516105f1919061450c565b60405180910390f35b34801561060657600080fd5b5061060f611116565b60405161061c9190614430565b60405180910390f35b34801561063157600080fd5b5061064c60048036038101906106479190613b05565b61111d565b005b34801561065a57600080fd5b50610663611133565b604051610670919061450c565b60405180910390f35b610693600480360381019061068e9190613b41565b6111c5565b6040516106a091906148ee565b60405180910390f35b3480156106b557600080fd5b506106d060048036038101906106cb9190613a8a565b61155b565b005b3480156106de57600080fd5b506106f960048036038101906106f49190613cc9565b6115bd565b604051610706919061450c565b60405180910390f35b34801561071b57600080fd5b5061072461170f565b6040516107319190614430565b60405180910390f35b34801561074657600080fd5b5061074f611733565b60405161075c91906148ee565b60405180910390f35b34801561077157600080fd5b5061078c60048036038101906107879190613bfa565b611757565b005b34801561079a57600080fd5b506107b560048036038101906107b091906139ff565b611778565b6040516107c29190614415565b60405180910390f35b3480156107d757600080fd5b506107e061180c565b6040516107ed9190614415565b60405180910390f35b34801561080257600080fd5b5061081d60048036038101906108189190613c88565b61181f565b005b34801561082b57600080fd5b50610846600480360381019061084191906139d6565b6118b5565b005b34801561085457600080fd5b5061085d6119ad565b60405161086a91906148ee565b60405180910390f35b600061087e826119d1565b8061088e575061088d82611ab3565b5b9050919050565b6060600080546108a490614c98565b80601f01602080910402602001604051908101604052809291908181526020018280546108d090614c98565b801561091d5780601f106108f25761010080835404028352916020019161091d565b820191906000526020600020905b81548152906001019060200180831161090057829003601f168201915b5050505050905090565b600061093282611b2d565b610971576040517f08c379a0000000000000000000000000000000000000000000000000000000008152600401610968906147ee565b60405180910390fd5b6004600083815260200190815260200160002060009054906101000a900473ffffffffffffffffffffffffffffffffffffffff169050919050565b60006109b782610dfd565b90508073ffffffffffffffffffffffffffffffffffffffff168373ffffffffffffffffffffffffffffffffffffffff161415610a28576040517f08c379a0000000000000000000000000000000000000000000000000000000008152600401610a1f9061486e565b60405180910390fd5b8073ffffffffffffffffffffffffffffffffffffffff16610a47611b99565b73ffffffffffffffffffffffffffffffffffffffff161480610a765750610a7581610a70611b99565b611778565b5b610ab5576040517f08c379a0000000000000000000000000000000000000000000000000000000008152600401610aac906146ee565b60405180910390fd5b610abf8383611ba1565b505050565b7f000000000000000000000000000000000000000000000000000000000000000081565b610af9610af3611b99565b82611c5a565b610b38576040517f08c379a0000000000000000000000000000000000000000000000000000000008152600401610b2f906148ae565b60405180910390fd5b610b43838383611d38565b505050565b600060076000838152602001908152602001600020600101549050919050565b610b70611b99565b73ffffffffffffffffffffffffffffffffffffffff16610b8e610fef565b73ffffffffffffffffffffffffffffffffffffffff1614610be4576040517f08c379a0000000000000000000000000000000000000000000000000000000008152600401610bdb9061480e565b60405180910390fd5b600860149054906101000a900460ff1615600860146101000a81548160ff021916908315150217905550565b610c1982610b48565b610c2281611f9f565b610c2c8383611fb3565b505050565b610c39611b99565b73ffffffffffffffffffffffffffffffffffffffff168173ffffffffffffffffffffffffffffffffffffffff1614610ca6576040517f08c379a0000000000000000000000000000000000000000000000000000000008152600401610c9d906148ce565b60405180910390fd5b610cb08282612094565b5050565b610cbc611b99565b73ffffffffffffffffffffffffffffffffffffffff16610cda610fef565b73ffffffffffffffffffffffffffffffffffffffff1614610d30576040517f08c379a0000000000000000000000000000000000000000000000000000000008152600401610d279061480e565b60405180910390fd5b6000479050610d3f3382612176565b50565b610d5d8383836040518060200160405280600081525061155b565b505050565b6000804690508091505090565b60098054610d7c90614c98565b80601f0160208091040260200160405190810160405280929190818152602001828054610da890614c98565b8015610df55780601f10610dca57610100808354040283529160200191610df5565b820191906000526020600020905b815481529060010190602001808311610dd857829003601f168201915b505050505081565b6000806002600084815260200190815260200160002060009054906101000a900473ffffffffffffffffffffffffffffffffffffffff169050600073ffffffffffffffffffffffffffffffffffffffff168173ffffffffffffffffffffffffffffffffffffffff161415610ea6576040517f08c379a0000000000000000000000000000000000000000000000000000000008152600401610e9d9061472e565b60405180910390fd5b80915050919050565b60008073ffffffffffffffffffffffffffffffffffffffff168273ffffffffffffffffffffffffffffffffffffffff161415610f20576040517f08c379a0000000000000000000000000000000000000000000000000000000008152600401610f179061470e565b60405180910390fd5b600360008373ffffffffffffffffffffffffffffffffffffffff1673ffffffffffffffffffffffffffffffffffffffff168152602001908152602001600020549050919050565b610f6f611b99565b73ffffffffffffffffffffffffffffffffffffffff16610f8d610fef565b73ffffffffffffffffffffffffffffffffffffffff1614610fe3576040517f08c379a0000000000000000000000000000000000000000000000000000000008152600401610fda9061480e565b60405180910390fd5b610fed6000612227565b565b6000600860009054906101000a900473ffffffffffffffffffffffffffffffffffffffff16905090565b60006007600084815260200190815260200160002060000160008373ffffffffffffffffffffffffffffffffffffffff1673ffffffffffffffffffffffffffffffffffffffff16815260200190815260200160002060009054906101000a900460ff16905092915050565b60606001805461109390614c98565b80601f01602080910402602001604051908101604052809291908181526020018280546110bf90614c98565b801561110c5780601f106110e15761010080835404028352916020019161110c565b820191906000526020600020905b8154815290600101906020018083116110ef57829003601f168201915b5050505050905090565b6000801b81565b61112f611128611b99565b83836122ed565b5050565b60606009805461114290614c98565b80601f016020809104026020016040519081016040528092919081815260200182805461116e90614c98565b80156111bb5780601f10611190576101008083540402835291602001916111bb565b820191906000526020600020905b81548152906001019060200180831161119e57829003601f168201915b5050505050905090565b6000806111d18361245a565b90506111fd7f9f2df0fed2c77648de5860a4cc508cd0818c85b8b8a1ab4ceeef8d981c8956a682611019565b61123c576040517f08c379a00000000000000000000000000000000000000000000000000000000081526004016112339061488e565b60405180910390fd5b600860149054906101000a900460ff1661128b576040517f08c379a00000000000000000000000000000000000000000000000000000000081526004016112829061460e565b60405180910390fd5b6000611297600b6124cc565b90507f000000000000000000000000000000000000000000000000000000000000000081106112fb576040517f08c379a00000000000000000000000000000000000000000000000000000000081526004016112f29061484e565b60405180910390fd5b7f0000000000000000000000000000000000000000000000000000000000000000811061138a577f0000000000000000000000000000000000000000000000000000000000000000341015611385576040517f08c379a000000000000000000000000000000000000000000000000000000000815260040161137c9061478e565b60405180910390fd5b611477565b6001600a60003373ffffffffffffffffffffffffffffffffffffffff1673ffffffffffffffffffffffffffffffffffffffff16815260200190815260200160002060009054906101000a900460ff1660ff16141561141d576040517f08c379a0000000000000000000000000000000000000000000000000000000008152600401611414906146ce565b60405180910390fd5b6001600a60003373ffffffffffffffffffffffffffffffffffffffff1673ffffffffffffffffffffffffffffffffffffffff16815260200190815260200160002060006101000a81548160ff021916908360ff1602179055505b611481600b6124da565b600061148d600b6124cc565b905061149983826124f0565b6114f5818680600001906114ad9190614960565b8080601f016020809104026020016040519081016040528093929190818152602001838380828437600081840152601f19601f8201169050808301925050505050505061250e565b611500838783611d38565b808673ffffffffffffffffffffffffffffffffffffffff167f4c209b5fc8ad50758f13e2e1088ba56a560dff690a1c6fef26394f4c03821c4f4360405161154791906148ee565b60405180910390a380935050505092915050565b61156c611566611b99565b83611c5a565b6115ab576040517f08c379a00000000000000000000000000000000000000000000000000000000081526004016115a2906148ae565b60405180910390fd5b6115b784848484612582565b50505050565b60606115c882611b2d565b611607576040517f08c379a00000000000000000000000000000000000000000000000000000000081526004016115fe906147ce565b60405180910390fd5b600060066000848152602001908152602001600020805461162790614c98565b80601f016020809104026020016040519081016040528092919081815260200182805461165390614c98565b80156116a05780601f10611675576101008083540402835291602001916116a0565b820191906000526020600020905b81548152906001019060200180831161168357829003601f168201915b5050505050905060006116b16125de565b90506000815114156116c757819250505061170a565b6000825111156116fc5780826040516020016116e49291906142db565b6040516020818303038152906040529250505061170a565b611705846125f5565b925050505b919050565b7f9f2df0fed2c77648de5860a4cc508cd0818c85b8b8a1ab4ceeef8d981c8956a681565b7f000000000000000000000000000000000000000000000000000000000000000081565b61176082610b48565b61176981611f9f565b6117738383612094565b505050565b6000600560008473ffffffffffffffffffffffffffffffffffffffff1673ffffffffffffffffffffffffffffffffffffffff16815260200190815260200160002060008373ffffffffffffffffffffffffffffffffffffffff1673ffffffffffffffffffffffffffffffffffffffff16815260200190815260200160002060009054906101000a900460ff16905092915050565b600860149054906101000a900460ff1681565b611827611b99565b73ffffffffffffffffffffffffffffffffffffffff16611845610fef565b73ffffffffffffffffffffffffffffffffffffffff161461189b576040517f08c379a00000000000000000000000000000000000000000000000000000000081526004016118929061480e565b60405180910390fd5b80600990805190602001906118b19291906137ca565b5050565b6118bd611b99565b73ffffffffffffffffffffffffffffffffffffffff166118db610fef565b73ffffffffffffffffffffffffffffffffffffffff1614611931576040517f08c379a00000000000000000000000000000000000000000000000000000000081526004016119289061480e565b60405180910390fd5b600073ffffffffffffffffffffffffffffffffffffffff168173ffffffffffffffffffffffffffffffffffffffff1614156119a1576040517f08c379a0000000000000000000000000000000000000000000000000000000008152600401611998906145ae565b60405180910390fd5b6119aa81612227565b50565b7f000000000000000000000000000000000000000000000000000000000000000081565b60007f80ac58cd000000000000000000000000000000000000000000000000000000007bffffffffffffffffffffffffffffffffffffffffffffffffffffffff1916827bffffffffffffffffffffffffffffffffffffffffffffffffffffffff19161480611a9c57507f5b5e139f000000000000000000000000000000000000000000000000000000007bffffffffffffffffffffffffffffffffffffffffffffffffffffffff1916827bffffffffffffffffffffffffffffffffffffffffffffffffffffffff1916145b80611aac5750611aab8261269c565b5b9050919050565b60007f7965db0b000000000000000000000000000000000000000000000000000000007bffffffffffffffffffffffffffffffffffffffffffffffffffffffff1916827bffffffffffffffffffffffffffffffffffffffffffffffffffffffff19161480611b265750611b25826119d1565b5b9050919050565b60008073ffffffffffffffffffffffffffffffffffffffff166002600084815260200190815260200160002060009054906101000a900473ffffffffffffffffffffffffffffffffffffffff1673ffffffffffffffffffffffffffffffffffffffff1614159050919050565b600033905090565b816004600083815260200190815260200160002060006101000a81548173ffffffffffffffffffffffffffffffffffffffff021916908373ffffffffffffffffffffffffffffffffffffffff160217905550808273ffffffffffffffffffffffffffffffffffffffff16611c1483610dfd565b73ffffffffffffffffffffffffffffffffffffffff167f8c5be1e5ebec7d5bd14f71427d1e84f3dd0314c0f7b2291e5b200ac8c7c3b92560405160405180910390a45050565b6000611c6582611b2d565b611ca4576040517f08c379a0000000000000000000000000000000000000000000000000000000008152600401611c9b906146ae565b60405180910390fd5b6000611caf83610dfd565b90508073ffffffffffffffffffffffffffffffffffffffff168473ffffffffffffffffffffffffffffffffffffffff161480611cf15750611cf08185611778565b5b80611d2f57508373ffffffffffffffffffffffffffffffffffffffff16611d1784610927565b73ffffffffffffffffffffffffffffffffffffffff16145b91505092915050565b8273ffffffffffffffffffffffffffffffffffffffff16611d5882610dfd565b73ffffffffffffffffffffffffffffffffffffffff1614611dae576040517f08c379a0000000000000000000000000000000000000000000000000000000008152600401611da5906145ce565b60405180910390fd5b600073ffffffffffffffffffffffffffffffffffffffff168273ffffffffffffffffffffffffffffffffffffffff161415611e1e576040517f08c379a0000000000000000000000000000000000000000000000000000000008152600401611e159061464e565b60405180910390fd5b611e29838383612706565b611e34600082611ba1565b6001600360008573ffffffffffffffffffffffffffffffffffffffff1673ffffffffffffffffffffffffffffffffffffffff1681526020019081526020016000206000828254611e849190614b6d565b925050819055506001600360008473ffffffffffffffffffffffffffffffffffffffff1673ffffffffffffffffffffffffffffffffffffffff1681526020019081526020016000206000828254611edb9190614a8c565b92505081905550816002600083815260200190815260200160002060006101000a81548173ffffffffffffffffffffffffffffffffffffffff021916908373ffffffffffffffffffffffffffffffffffffffff160217905550808273ffffffffffffffffffffffffffffffffffffffff168473ffffffffffffffffffffffffffffffffffffffff167fddf252ad1be2c89b69c2b068fc378daa952ba7f163c4a11628f55a4df523b3ef60405160405180910390a4611f9a83838361270b565b505050565b611fb081611fab611b99565b612710565b50565b611fbd8282611019565b6120905760016007600084815260200190815260200160002060000160008373ffffffffffffffffffffffffffffffffffffffff1673ffffffffffffffffffffffffffffffffffffffff16815260200190815260200160002060006101000a81548160ff021916908315150217905550612035611b99565b73ffffffffffffffffffffffffffffffffffffffff168173ffffffffffffffffffffffffffffffffffffffff16837f2f8788117e7eff1d82e926ec794901d17c78024a50270940304540a733656f0d60405160405180910390a45b5050565b61209e8282611019565b156121725760006007600084815260200190815260200160002060000160008373ffffffffffffffffffffffffffffffffffffffff1673ffffffffffffffffffffffffffffffffffffffff16815260200190815260200160002060006101000a81548160ff021916908315150217905550612117611b99565b73ffffffffffffffffffffffffffffffffffffffff168173ffffffffffffffffffffffffffffffffffffffff16837ff6391f5c32d9c69d2a47ea670b442974b53935d1edc7fd64eb21e047a839171b60405160405180910390a45b5050565b60008273ffffffffffffffffffffffffffffffffffffffff168260405161219c90614336565b60006040518083038185875af1925050503d80600081146121d9576040519150601f19603f3d011682016040523d82523d6000602084013e6121de565b606091505b5050905080612222576040517f08c379a00000000000000000000000000000000000000000000000000000000081526004016122199061462e565b60405180910390fd5b505050565b6000600860009054906101000a900473ffffffffffffffffffffffffffffffffffffffff16905081600860006101000a81548173ffffffffffffffffffffffffffffffffffffffff021916908373ffffffffffffffffffffffffffffffffffffffff1602179055508173ffffffffffffffffffffffffffffffffffffffff168173ffffffffffffffffffffffffffffffffffffffff167f8be0079c531659141344cd1fd0a4f28419497f9722a3daafe3b4186f6b6457e060405160405180910390a35050565b8173ffffffffffffffffffffffffffffffffffffffff168373ffffffffffffffffffffffffffffffffffffffff16141561235c576040517f08c379a00000000000000000000000000000000000000000000000000000000081526004016123539061466e565b60405180910390fd5b80600560008573ffffffffffffffffffffffffffffffffffffffff1673ffffffffffffffffffffffffffffffffffffffff16815260200190815260200160002060008473ffffffffffffffffffffffffffffffffffffffff1673ffffffffffffffffffffffffffffffffffffffff16815260200190815260200160002060006101000a81548160ff0219169083151502179055508173ffffffffffffffffffffffffffffffffffffffff168373ffffffffffffffffffffffffffffffffffffffff167f17307eab39ab6107e8899845ad3d59bd9653f200f220920489ca2b5937696c318360405161244d9190614415565b60405180910390a3505050565b600080612466836127ad565b90506124c48184806020019061247c9190614909565b8080601f016020809104026020016040519081016040528093929190818152602001838380828437600081840152601f19601f8201169050808301925050505050505061282c565b915050919050565b600081600001549050919050565b6001816000016000828254019250508190555050565b61250a828260405180602001604052806000815250612853565b5050565b61251782611b2d565b612556576040517f08c379a000000000000000000000000000000000000000000000000000000000815260040161254d9061474e565b60405180910390fd5b8060066000848152602001908152602001600020908051906020019061257d9291906137ca565b505050565b61258d848484611d38565b612599848484846128ae565b6125d8576040517f08c379a00000000000000000000000000000000000000000000000000000000081526004016125cf9061458e565b60405180910390fd5b50505050565b606060405180602001604052806000815250905090565b606061260082611b2d565b61263f576040517f08c379a00000000000000000000000000000000000000000000000000000000081526004016126369061482e565b60405180910390fd5b60006126496125de565b905060008151116126695760405180602001604052806000815250612694565b8061267384612a45565b6040516020016126849291906142db565b6040516020818303038152906040525b915050919050565b60007f01ffc9a7000000000000000000000000000000000000000000000000000000007bffffffffffffffffffffffffffffffffffffffffffffffffffffffff1916827bffffffffffffffffffffffffffffffffffffffffffffffffffffffff1916149050919050565b505050565b505050565b61271a8282611019565b6127a95761273f8173ffffffffffffffffffffffffffffffffffffffff166014612bf2565b61274d8360001c6020612bf2565b60405160200161275e92919061434b565b6040516020818303038152906040526040517f08c379a00000000000000000000000000000000000000000000000000000000081526004016127a0919061450c565b60405180910390fd5b5050565b60006128257f327f1f0516d1c055a517251f99e01a6540953a36efc030821399477ee4dbb2c08380600001906127e39190614960565b6040516127f19291906142c2565b604051809103902060405160200161280a92919061444b565b60405160208183030381529060405280519060200120612eec565b9050919050565b600080600061283b8585612f06565b9150915061284881612f89565b819250505092915050565b61285d83836132da565b61286a60008484846128ae565b6128a9576040517f08c379a00000000000000000000000000000000000000000000000000000000081526004016128a09061458e565b60405180910390fd5b505050565b60006128cf8473ffffffffffffffffffffffffffffffffffffffff166134b4565b15612a38578373ffffffffffffffffffffffffffffffffffffffff1663150b7a026128f8611b99565b8786866040518563ffffffff1660e01b815260040161291a94939291906143a0565b602060405180830381600087803b15801561293457600080fd5b505af192505050801561296557506040513d601f19601f820116820180604052508101906129629190613c5f565b60015b6129e8573d8060008114612995576040519150601f19603f3d011682016040523d82523d6000602084013e61299a565b606091505b506000815114156129e0576040517f08c379a00000000000000000000000000000000000000000000000000000000081526004016129d79061458e565b60405180910390fd5b805181602001fd5b63150b7a0260e01b7bffffffffffffffffffffffffffffffffffffffffffffffffffffffff1916817bffffffffffffffffffffffffffffffffffffffffffffffffffffffff191614915050612a3d565b600190505b949350505050565b60606000821415612a8d576040518060400160405280600181526020017f30000000000000000000000000000000000000000000000000000000000000008152509050612bed565b600082905060005b60008214612abf578080612aa890614cfb565b915050600a82612ab89190614ae2565b9150612a95565b60008167ffffffffffffffff811115612b01577f4e487b7100000000000000000000000000000000000000000000000000000000600052604160045260246000fd5b6040519080825280601f01601f191660200182016040528015612b335781602001600182028036833780820191505090505b5090505b60008514612be657600182612b4c9190614b6d565b9150600a85612b5b9190614d4e565b6030612b679190614a8c565b60f81b818381518110612ba3577f4e487b7100000000000000000000000000000000000000000000000000000000600052603260045260246000fd5b60200101907effffffffffffffffffffffffffffffffffffffffffffffffffffffffffffff1916908160001a905350600a85612bdf9190614ae2565b9450612b37565b8093505050505b919050565b606060006002836002612c059190614b13565b612c0f9190614a8c565b67ffffffffffffffff811115612c4e577f4e487b7100000000000000000000000000000000000000000000000000000000600052604160045260246000fd5b6040519080825280601f01601f191660200182016040528015612c805781602001600182028036833780820191505090505b5090507f300000000000000000000000000000000000000000000000000000000000000081600081518110612cde577f4e487b7100000000000000000000000000000000000000000000000000000000600052603260045260246000fd5b60200101907effffffffffffffffffffffffffffffffffffffffffffffffffffffffffffff1916908160001a9053507f780000000000000000000000000000000000000000000000000000000000000081600181518110612d68577f4e487b7100000000000000000000000000000000000000000000000000000000600052603260045260246000fd5b60200101907effffffffffffffffffffffffffffffffffffffffffffffffffffffffffffff1916908160001a90535060006001846002612da89190614b13565b612db29190614a8c565b90505b6001811115612e9e577f3031323334353637383961626364656600000000000000000000000000000000600f861660108110612e1a577f4e487b7100000000000000000000000000000000000000000000000000000000600052603260045260246000fd5b1a60f81b828281518110612e57577f4e487b7100000000000000000000000000000000000000000000000000000000600052603260045260246000fd5b60200101907effffffffffffffffffffffffffffffffffffffffffffffffffffffffffffff1916908160001a905350600485901c945080612e9790614c6e565b9050612db5565b5060008414612ee2576040517f08c379a0000000000000000000000000000000000000000000000000000000008152600401612ed99061454e565b60405180910390fd5b8091505092915050565b6000612eff612ef96134d7565b836135f1565b9050919050565b600080604183511415612f485760008060006020860151925060408601519150606086015160001a9050612f3c87828585613624565b94509450505050612f82565b604083511415612f79576000806020850151915060408501519050612f6e868383613731565b935093505050612f82565b60006002915091505b9250929050565b60006004811115612fc3577f4e487b7100000000000000000000000000000000000000000000000000000000600052602160045260246000fd5b816004811115612ffc577f4e487b7100000000000000000000000000000000000000000000000000000000600052602160045260246000fd5b1415613007576132d7565b60016004811115613041577f4e487b7100000000000000000000000000000000000000000000000000000000600052602160045260246000fd5b81600481111561307a577f4e487b7100000000000000000000000000000000000000000000000000000000600052602160045260246000fd5b14156130bb576040517f08c379a00000000000000000000000000000000000000000000000000000000081526004016130b29061452e565b60405180910390fd5b600260048111156130f5577f4e487b7100000000000000000000000000000000000000000000000000000000600052602160045260246000fd5b81600481111561312e577f4e487b7100000000000000000000000000000000000000000000000000000000600052602160045260246000fd5b141561316f576040517f08c379a00000000000000000000000000000000000000000000000000000000081526004016131669061456e565b60405180910390fd5b600360048111156131a9577f4e487b7100000000000000000000000000000000000000000000000000000000600052602160045260246000fd5b8160048111156131e2577f4e487b7100000000000000000000000000000000000000000000000000000000600052602160045260246000fd5b1415613223576040517f08c379a000000000000000000000000000000000000000000000000000000000815260040161321a9061468e565b60405180910390fd5b60048081111561325c577f4e487b7100000000000000000000000000000000000000000000000000000000600052602160045260246000fd5b816004811115613295577f4e487b7100000000000000000000000000000000000000000000000000000000600052602160045260246000fd5b14156132d6576040517f08c379a00000000000000000000000000000000000000000000000000000000081526004016132cd9061476e565b60405180910390fd5b5b50565b600073ffffffffffffffffffffffffffffffffffffffff168273ffffffffffffffffffffffffffffffffffffffff16141561334a576040517f08c379a0000000000000000000000000000000000000000000000000000000008152600401613341906147ae565b60405180910390fd5b61335381611b2d565b15613393576040517f08c379a000000000000000000000000000000000000000000000000000000000815260040161338a906145ee565b60405180910390fd5b61339f60008383612706565b6001600360008473ffffffffffffffffffffffffffffffffffffffff1673ffffffffffffffffffffffffffffffffffffffff16815260200190815260200160002060008282546133ef9190614a8c565b92505081905550816002600083815260200190815260200160002060006101000a81548173ffffffffffffffffffffffffffffffffffffffff021916908373ffffffffffffffffffffffffffffffffffffffff160217905550808273ffffffffffffffffffffffffffffffffffffffff16600073ffffffffffffffffffffffffffffffffffffffff167fddf252ad1be2c89b69c2b068fc378daa952ba7f163c4a11628f55a4df523b3ef60405160405180910390a46134b06000838361270b565b5050565b6000808273ffffffffffffffffffffffffffffffffffffffff163b119050919050565b60007f000000000000000000000000000000000000000000000000000000000000000073ffffffffffffffffffffffffffffffffffffffff163073ffffffffffffffffffffffffffffffffffffffff1614801561355357507f000000000000000000000000000000000000000000000000000000000000000046145b15613580577f000000000000000000000000000000000000000000000000000000000000000090506135ee565b6135eb7f00000000000000000000000000000000000000000000000000000000000000007f00000000000000000000000000000000000000000000000000000000000000007f0000000000000000000000000000000000000000000000000000000000000000613790565b90505b90565b600082826040516020016136069291906142ff565b60405160208183030381529060405280519060200120905092915050565b6000807f7fffffffffffffffffffffffffffffff5d576e7357a4501ddfe92f46681b20a08360001c111561365f576000600391509150613728565b601b8560ff16141580156136775750601c8560ff1614155b15613689576000600491509150613728565b6000600187878787604051600081526020016040526040516136ae94939291906144c7565b6020604051602081039080840390855afa1580156136d0573d6000803e3d6000fd5b505050602060405103519050600073ffffffffffffffffffffffffffffffffffffffff168173ffffffffffffffffffffffffffffffffffffffff16141561371f57600060019250925050613728565b80600092509250505b94509492505050565b60008060007f7fffffffffffffffffffffffffffffffffffffffffffffffffffffffffffffff60001b841690506000601b60ff8660001c901c6137749190614a8c565b905061378287828885613624565b935093505050935093915050565b600083838346306040516020016137ab959493929190614474565b6040516020818303038152906040528051906020012090509392505050565b8280546137d690614c98565b90600052602060002090601f0160209004810192826137f8576000855561383f565b82601f1061381157805160ff191683800117855561383f565b8280016001018555821561383f579182015b8281111561383e578251825591602001919060010190613823565b5b50905061384c9190613850565b5090565b5b80821115613869576000816000905550600101613851565b5090565b600061388061387b846149dc565b6149b7565b90508281526020810184848401111561389857600080fd5b6138a3848285614c2c565b509392505050565b60006138be6138b984614a0d565b6149b7565b9050828152602081018484840111156138d657600080fd5b6138e1848285614c2c565b509392505050565b6000813590506138f88161566a565b92915050565b60008135905061390d81615681565b92915050565b60008135905061392281615698565b92915050565b600081359050613937816156af565b92915050565b60008151905061394c816156af565b92915050565b600082601f83011261396357600080fd5b813561397384826020860161386d565b91505092915050565b600082601f83011261398d57600080fd5b813561399d8482602086016138ab565b91505092915050565b6000604082840312156139b857600080fd5b81905092915050565b6000813590506139d0816156c6565b92915050565b6000602082840312156139e857600080fd5b60006139f6848285016138e9565b91505092915050565b60008060408385031215613a1257600080fd5b6000613a20858286016138e9565b9250506020613a31858286016138e9565b9150509250929050565b600080600060608486031215613a5057600080fd5b6000613a5e868287016138e9565b9350506020613a6f868287016138e9565b9250506040613a80868287016139c1565b9150509250925092565b60008060008060808587031215613aa057600080fd5b6000613aae878288016138e9565b9450506020613abf878288016138e9565b9350506040613ad0878288016139c1565b925050606085013567ffffffffffffffff811115613aed57600080fd5b613af987828801613952565b91505092959194509250565b60008060408385031215613b1857600080fd5b6000613b26858286016138e9565b9250506020613b37858286016138fe565b9150509250929050565b60008060408385031215613b5457600080fd5b6000613b62858286016138e9565b925050602083013567ffffffffffffffff811115613b7f57600080fd5b613b8b858286016139a6565b9150509250929050565b60008060408385031215613ba857600080fd5b6000613bb6858286016138e9565b9250506020613bc7858286016139c1565b9150509250929050565b600060208284031215613be357600080fd5b6000613bf184828501613913565b91505092915050565b60008060408385031215613c0d57600080fd5b6000613c1b85828601613913565b9250506020613c2c858286016138e9565b9150509250929050565b600060208284031215613c4857600080fd5b6000613c5684828501613928565b91505092915050565b600060208284031215613c7157600080fd5b6000613c7f8482850161393d565b91505092915050565b600060208284031215613c9a57600080fd5b600082013567ffffffffffffffff811115613cb457600080fd5b613cc08482850161397c565b91505092915050565b600060208284031215613cdb57600080fd5b6000613ce9848285016139c1565b91505092915050565b613cfb81614ba1565b82525050565b613d0a81614bb3565b82525050565b613d1981614bbf565b82525050565b613d30613d2b82614bbf565b614d44565b82525050565b6000613d428385614a65565b9350613d4f838584614c2c565b82840190509392505050565b6000613d6682614a3e565b613d708185614a54565b9350613d80818560208601614c3b565b613d8981614e3b565b840191505092915050565b6000613d9f82614a49565b613da98185614a70565b9350613db9818560208601614c3b565b613dc281614e3b565b840191505092915050565b6000613dd882614a49565b613de28185614a81565b9350613df2818560208601614c3b565b80840191505092915050565b6000613e0b601883614a70565b9150613e1682614e4c565b602082019050919050565b6000613e2e602083614a70565b9150613e3982614e75565b602082019050919050565b6000613e51601f83614a70565b9150613e5c82614e9e565b602082019050919050565b6000613e74603283614a70565b9150613e7f82614ec7565b604082019050919050565b6000613e97602683614a70565b9150613ea282614f16565b604082019050919050565b6000613eba602583614a70565b9150613ec582614f65565b604082019050919050565b6000613edd601c83614a70565b9150613ee882614fb4565b602082019050919050565b6000613f00600283614a81565b9150613f0b82614fdd565b600282019050919050565b6000613f23600e83614a70565b9150613f2e82615006565b602082019050919050565b6000613f46601483614a70565b9150613f518261502f565b602082019050919050565b6000613f69602483614a70565b9150613f7482615058565b604082019050919050565b6000613f8c601983614a70565b9150613f97826150a7565b602082019050919050565b6000613faf602283614a70565b9150613fba826150d0565b604082019050919050565b6000613fd2602c83614a70565b9150613fdd8261511f565b604082019050919050565b6000613ff5601983614a70565b91506140008261516e565b602082019050919050565b6000614018603883614a70565b915061402382615197565b604082019050919050565b600061403b602a83614a70565b9150614046826151e6565b604082019050919050565b600061405e602983614a70565b915061406982615235565b604082019050919050565b6000614081602e83614a70565b915061408c82615284565b604082019050919050565b60006140a4602283614a70565b91506140af826152d3565b604082019050919050565b60006140c7601c83614a70565b91506140d282615322565b602082019050919050565b60006140ea602083614a70565b91506140f58261534b565b602082019050919050565b600061410d603183614a70565b915061411882615374565b604082019050919050565b6000614130602c83614a70565b915061413b826153c3565b604082019050919050565b6000614153602083614a70565b915061415e82615412565b602082019050919050565b6000614176602f83614a70565b91506141818261543b565b604082019050919050565b6000614199602e83614a70565b91506141a48261548a565b604082019050919050565b60006141bc602183614a70565b91506141c7826154d9565b604082019050919050565b60006141df602183614a70565b91506141ea82615528565b604082019050919050565b6000614202600083614a65565b915061420d82615577565b600082019050919050565b6000614225603183614a70565b91506142308261557a565b604082019050919050565b6000614248601783614a81565b9150614253826155c9565b601782019050919050565b600061426b601183614a81565b9150614276826155f2565b601182019050919050565b600061428e602f83614a70565b91506142998261561b565b604082019050919050565b6142ad81614c15565b82525050565b6142bc81614c1f565b82525050565b60006142cf828486613d36565b91508190509392505050565b60006142e78285613dcd565b91506142f38284613dcd565b91508190509392505050565b600061430a82613ef3565b91506143168285613d1f565b6020820191506143268284613d1f565b6020820191508190509392505050565b6000614341826141f5565b9150819050919050565b60006143568261423b565b91506143628285613dcd565b915061436d8261425e565b91506143798284613dcd565b91508190509392505050565b600060208201905061439a6000830184613cf2565b92915050565b60006080820190506143b56000830187613cf2565b6143c26020830186613cf2565b6143cf60408301856142a4565b81810360608301526143e18184613d5b565b905095945050505050565b60006040820190506144016000830185613cf2565b61440e60208301846142a4565b9392505050565b600060208201905061442a6000830184613d01565b92915050565b60006020820190506144456000830184613d10565b92915050565b60006040820190506144606000830185613d10565b61446d6020830184613d10565b9392505050565b600060a0820190506144896000830188613d10565b6144966020830187613d10565b6144a36040830186613d10565b6144b060608301856142a4565b6144bd6080830184613cf2565b9695505050505050565b60006080820190506144dc6000830187613d10565b6144e960208301866142b3565b6144f66040830185613d10565b6145036060830184613d10565b95945050505050565b600060208201905081810360008301526145268184613d94565b905092915050565b6000602082019050818103600083015261454781613dfe565b9050919050565b6000602082019050818103600083015261456781613e21565b9050919050565b6000602082019050818103600083015261458781613e44565b9050919050565b600060208201905081810360008301526145a781613e67565b9050919050565b600060208201905081810360008301526145c781613e8a565b9050919050565b600060208201905081810360008301526145e781613ead565b9050919050565b6000602082019050818103600083015261460781613ed0565b9050919050565b6000602082019050818103600083015261462781613f16565b9050919050565b6000602082019050818103600083015261464781613f39565b9050919050565b6000602082019050818103600083015261466781613f5c565b9050919050565b6000602082019050818103600083015261468781613f7f565b9050919050565b600060208201905081810360008301526146a781613fa2565b9050919050565b600060208201905081810360008301526146c781613fc5565b9050919050565b600060208201905081810360008301526146e781613fe8565b9050919050565b600060208201905081810360008301526147078161400b565b9050919050565b600060208201905081810360008301526147278161402e565b9050919050565b6000602082019050818103600083015261474781614051565b9050919050565b6000602082019050818103600083015261476781614074565b9050919050565b6000602082019050818103600083015261478781614097565b9050919050565b600060208201905081810360008301526147a7816140ba565b9050919050565b600060208201905081810360008301526147c7816140dd565b9050919050565b600060208201905081810360008301526147e781614100565b9050919050565b6000602082019050818103600083015261480781614123565b9050919050565b6000602082019050818103600083015261482781614146565b9050919050565b6000602082019050818103600083015261484781614169565b9050919050565b600060208201905081810360008301526148678161418c565b9050919050565b60006020820190508181036000830152614887816141af565b9050919050565b600060208201905081810360008301526148a7816141d2565b9050919050565b600060208201905081810360008301526148c781614218565b9050919050565b600060208201905081810360008301526148e781614281565b9050919050565b600060208201905061490360008301846142a4565b92915050565b6000808335600160200384360303811261492257600080fd5b80840192508235915067ffffffffffffffff82111561494057600080fd5b60208301925060018202360383131561495857600080fd5b509250929050565b6000808335600160200384360303811261497957600080fd5b80840192508235915067ffffffffffffffff82111561499757600080fd5b6020830192506001820236038313156149af57600080fd5b509250929050565b60006149c16149d2565b90506149cd8282614cca565b919050565b6000604051905090565b600067ffffffffffffffff8211156149f7576149f6614e0c565b5b614a0082614e3b565b9050602081019050919050565b600067ffffffffffffffff821115614a2857614a27614e0c565b5b614a3182614e3b565b9050602081019050919050565b600081519050919050565b600081519050919050565b600082825260208201905092915050565b600081905092915050565b600082825260208201905092915050565b600081905092915050565b6000614a9782614c15565b9150614aa283614c15565b9250827fffffffffffffffffffffffffffffffffffffffffffffffffffffffffffffffff03821115614ad757614ad6614d7f565b5b828201905092915050565b6000614aed82614c15565b9150614af883614c15565b925082614b0857614b07614dae565b5b828204905092915050565b6000614b1e82614c15565b9150614b2983614c15565b9250817fffffffffffffffffffffffffffffffffffffffffffffffffffffffffffffffff0483118215151615614b6257614b61614d7f565b5b828202905092915050565b6000614b7882614c15565b9150614b8383614c15565b925082821015614b9657614b95614d7f565b5b828203905092915050565b6000614bac82614bf5565b9050919050565b60008115159050919050565b6000819050919050565b60007fffffffff0000000000000000000000000000000000000000000000000000000082169050919050565b600073ffffffffffffffffffffffffffffffffffffffff82169050919050565b6000819050919050565b600060ff82169050919050565b82818337600083830152505050565b60005b83811015614c59578082015181840152602081019050614c3e565b83811115614c68576000848401525b50505050565b6000614c7982614c15565b91506000821415614c8d57614c8c614d7f565b5b600182039050919050565b60006002820490506001821680614cb057607f821691505b60208210811415614cc457614cc3614ddd565b5b50919050565b614cd382614e3b565b810181811067ffffffffffffffff82111715614cf257614cf1614e0c565b5b80604052505050565b6000614d0682614c15565b91507fffffffffffffffffffffffffffffffffffffffffffffffffffffffffffffffff821415614d3957614d38614d7f565b5b600182019050919050565b6000819050919050565b6000614d5982614c15565b9150614d6483614c15565b925082614d7457614d73614dae565b5b828206905092915050565b7f4e487b7100000000000000000000000000000000000000000000000000000000600052601160045260246000fd5b7f4e487b7100000000000000000000000000000000000000000000000000000000600052601260045260246000fd5b7f4e487b7100000000000000000000000000000000000000000000000000000000600052602260045260246000fd5b7f4e487b7100000000000000000000000000000000000000000000000000000000600052604160045260246000fd5b6000601f19601f8301169050919050565b7f45434453413a20696e76616c6964207369676e61747572650000000000000000600082015250565b7f537472696e67733a20686578206c656e67746820696e73756666696369656e74600082015250565b7f45434453413a20696e76616c6964207369676e6174757265206c656e67746800600082015250565b7f4552433732313a207472616e7366657220746f206e6f6e20455243373231526560008201527f63656976657220696d706c656d656e7465720000000000000000000000000000602082015250565b7f4f776e61626c653a206e6577206f776e657220697320746865207a65726f206160008201527f6464726573730000000000000000000000000000000000000000000000000000602082015250565b7f4552433732313a207472616e736665722066726f6d20696e636f72726563742060008201527f6f776e6572000000000000000000000000000000000000000000000000000000602082015250565b7f4552433732313a20746f6b656e20616c7265616479206d696e74656400000000600082015250565b7f1901000000000000000000000000000000000000000000000000000000000000600082015250565b7f4d656e206973206c6f6164696e67000000000000000000000000000000000000600082015250565b7f4661696c656420746f2073656e64204574686572000000000000000000000000600082015250565b7f4552433732313a207472616e7366657220746f20746865207a65726f2061646460008201527f7265737300000000000000000000000000000000000000000000000000000000602082015250565b7f4552433732313a20617070726f766520746f2063616c6c657200000000000000600082015250565b7f45434453413a20696e76616c6964207369676e6174757265202773272076616c60008201527f7565000000000000000000000000000000000000000000000000000000000000602082015250565b7f4552433732313a206f70657261746f7220717565727920666f72206e6f6e657860008201527f697374656e7420746f6b656e0000000000000000000000000000000000000000602082015250565b7f596f7520616c726561647920636c61696d656420796f75727300000000000000600082015250565b7f4552433732313a20617070726f76652063616c6c6572206973206e6f74206f7760008201527f6e6572206e6f7220617070726f76656420666f7220616c6c0000000000000000602082015250565b7f4552433732313a2062616c616e636520717565727920666f7220746865207a6560008201527f726f206164647265737300000000000000000000000000000000000000000000602082015250565b7f4552433732313a206f776e657220717565727920666f72206e6f6e657869737460008201527f656e7420746f6b656e0000000000000000000000000000000000000000000000602082015250565b7f45524337323155524953746f726167653a2055524920736574206f66206e6f6e60008201527f6578697374656e7420746f6b656e000000000000000000000000000000000000602082015250565b7f45434453413a20696e76616c6964207369676e6174757265202776272076616c60008201527f7565000000000000000000000000000000000000000000000000000000000000602082015250565b7f496e73756666696369656e742066756e647320746f2072656465656d00000000600082015250565b7f4552433732313a206d696e7420746f20746865207a65726f2061646472657373600082015250565b7f45524337323155524953746f726167653a2055524920717565727920666f722060008201527f6e6f6e6578697374656e7420746f6b656e000000000000000000000000000000602082015250565b7f4552433732313a20617070726f76656420717565727920666f72206e6f6e657860008201527f697374656e7420746f6b656e0000000000000000000000000000000000000000602082015250565b7f4f776e61626c653a2063616c6c6572206973206e6f7420746865206f776e6572600082015250565b7f4552433732314d657461646174613a2055524920717565727920666f72206e6f60008201527f6e6578697374656e7420746f6b656e0000000000000000000000000000000000602082015250565b7f417661696c61626c6520746f207472616465206174204f70656e53656120616e60008201527f6420506978656c2047617264656e000000000000000000000000000000000000602082015250565b7f4552433732313a20617070726f76616c20746f2063757272656e74206f776e6560008201527f7200000000000000000000000000000000000000000000000000000000000000602082015250565b7f5369676e617475726520696e76616c6964206f7220756e617574686f72697a6560008201527f6400000000000000000000000000000000000000000000000000000000000000602082015250565b50565b7f4552433732313a207472616e736665722063616c6c6572206973206e6f74206f60008201527f776e6572206e6f7220617070726f766564000000000000000000000000000000602082015250565b7f416363657373436f6e74726f6c3a206163636f756e7420000000000000000000600082015250565b7f206973206d697373696e6720726f6c6520000000000000000000000000000000600082015250565b7f416363657373436f6e74726f6c3a2063616e206f6e6c792072656e6f756e636560008201527f20726f6c657320666f722073656c660000000000000000000000000000000000602082015250565b61567381614ba1565b811461567e57600080fd5b50565b61568a81614bb3565b811461569557600080fd5b50565b6156a181614bbf565b81146156ac57600080fd5b50565b6156b881614bc9565b81146156c357600080fd5b50565b6156cf81614c15565b81146156da57600080fd5b5056fea26469706673582212204c03f8e2aed59ffca4b7389c293657989f4b5276211c34d275024bd79af9ee9f64736f6c63430008040033",
  "linkReferences": {},
  "deployedLinkReferences": {}
}